{
  "contractName": "LendingPool",
  "abi": [
    {
      "inputs": [
        {
          "internalType": "address",
          "name": "poolManager_",
          "type": "address"
        },
        {
          "internalType": "address",
          "name": "loanManager_",
          "type": "address"
        },
        {
          "internalType": "address",
          "name": "offerManager_",
          "type": "address"
        },
        {
          "internalType": "address",
          "name": "feeManager_",
          "type": "address"
        }
      ],
      "stateMutability": "nonpayable",
      "type": "constructor"
    },
    {
      "inputs": [],
      "name": "INTEREST_RATE_DENOMINATOR",
      "outputs": [
        {
          "internalType": "uint256",
          "name": "",
          "type": "uint256"
        }
      ],
      "stateMutability": "view",
      "type": "function",
      "constant": true
    },
    {
      "inputs": [],
      "name": "PERCENT",
      "outputs": [
        {
          "internalType": "uint16",
          "name": "",
          "type": "uint16"
        }
      ],
      "stateMutability": "view",
      "type": "function",
      "constant": true
    },
    {
      "inputs": [
        {
          "internalType": "uint256",
          "name": "principal",
          "type": "uint256"
        },
        {
          "internalType": "uint256",
          "name": "durationSecs",
          "type": "uint256"
        },
        {
          "internalType": "uint256",
          "name": "interest",
          "type": "uint256"
        }
      ],
      "name": "getFullInterestAmount",
      "outputs": [
        {
          "internalType": "uint256",
          "name": "",
          "type": "uint256"
        }
      ],
      "stateMutability": "pure",
      "type": "function",
      "constant": true
    },
    {
      "inputs": [],
      "name": "nativeAddress",
      "outputs": [
        {
          "internalType": "address",
          "name": "",
          "type": "address"
        }
      ],
      "stateMutability": "view",
      "type": "function",
      "constant": true
    },
    {
      "inputs": [
        {
          "internalType": "uint256",
          "name": "total",
          "type": "uint256"
        },
        {
          "internalType": "uint160",
          "name": "percent",
          "type": "uint160"
        }
      ],
      "name": "percentageOf",
      "outputs": [
        {
          "internalType": "uint256",
          "name": "",
          "type": "uint256"
        }
      ],
      "stateMutability": "pure",
      "type": "function",
      "constant": true
    },
    {
      "inputs": [
        {
          "internalType": "uint256",
          "name": "principalAmount_",
          "type": "uint256"
        },
        {
          "internalType": "address",
          "name": "principalToken",
          "type": "address"
        },
        {
          "internalType": "address[]",
          "name": "collateralTokens",
          "type": "address[]"
        },
        {
          "internalType": "uint16",
          "name": "daysToMaturity",
          "type": "uint16"
        },
        {
          "internalType": "uint256",
          "name": "interest",
          "type": "uint256"
        },
        {
          "internalType": "uint16",
          "name": "daysToExpire",
          "type": "uint16"
        }
      ],
      "name": "createLendingOffer",
      "outputs": [],
      "stateMutability": "payable",
      "type": "function",
      "payable": true
    },
    {
      "inputs": [
        {
          "internalType": "uint256",
          "name": "offerId",
          "type": "uint256"
        },
        {
          "internalType": "uint16",
          "name": "percentage",
          "type": "uint16"
        },
        {
          "internalType": "uint16",
          "name": "daysToMaturity",
          "type": "uint16"
        },
        {
          "internalType": "uint256",
          "name": "interest",
          "type": "uint256"
        },
        {
          "internalType": "uint16",
          "name": "hoursToExpire",
          "type": "uint16"
        }
      ],
      "name": "createLendingRequest",
      "outputs": [],
      "stateMutability": "payable",
      "type": "function",
      "payable": true
    },
    {
      "inputs": [
        {
          "internalType": "uint256",
          "name": "offerId",
          "type": "uint256"
        },
        {
          "internalType": "uint16",
          "name": "percentage",
          "type": "uint16"
        }
      ],
      "name": "acceptBorrowingOffer",
      "outputs": [],
      "stateMutability": "payable",
      "type": "function",
      "payable": true
    },
    {
      "inputs": [
        {
          "internalType": "uint256",
          "name": "requestId",
          "type": "uint256"
        }
      ],
      "name": "acceptBorrowingRequest",
      "outputs": [],
      "stateMutability": "nonpayable",
      "type": "function"
    },
    {
      "inputs": [
        {
          "internalType": "address",
          "name": "principalToken",
          "type": "address"
        },
        {
          "internalType": "uint256",
          "name": "principalAmount",
          "type": "uint256"
        },
        {
          "internalType": "address",
          "name": "collateralToken",
          "type": "address"
        },
        {
          "internalType": "uint256",
          "name": "interest",
          "type": "uint256"
        },
        {
          "internalType": "uint16",
          "name": "daysToMaturity",
          "type": "uint16"
        },
        {
          "internalType": "uint16",
          "name": "hoursToExpire",
          "type": "uint16"
        }
      ],
      "name": "createBorrowingOffer",
      "outputs": [],
      "stateMutability": "payable",
      "type": "function",
      "payable": true
    },
    {
      "inputs": [
        {
          "internalType": "uint256",
          "name": "offerId",
          "type": "uint256"
        },
        {
          "internalType": "uint16",
          "name": "percentage",
          "type": "uint16"
        },
        {
          "internalType": "address",
          "name": "collateralToken",
          "type": "address"
        },
        {
          "internalType": "uint256",
          "name": "interest",
          "type": "uint256"
        },
        {
          "internalType": "uint16",
          "name": "daysToMaturity",
          "type": "uint16"
        },
        {
          "internalType": "uint16",
          "name": "hoursToExpire",
          "type": "uint16"
        }
      ],
      "name": "createBorrowingRequest",
      "outputs": [],
      "stateMutability": "payable",
      "type": "function",
      "payable": true
    },
    {
      "inputs": [
        {
          "internalType": "uint256",
          "name": "offerId",
          "type": "uint256"
        },
        {
          "internalType": "uint16",
          "name": "percentage",
          "type": "uint16"
        },
        {
          "internalType": "address",
          "name": "collateralToken",
          "type": "address"
        }
      ],
      "name": "acceptLendingOffer",
      "outputs": [],
      "stateMutability": "payable",
      "type": "function",
      "payable": true
    },
    {
      "inputs": [
        {
          "internalType": "uint256",
          "name": "requestId",
          "type": "uint256"
        }
      ],
      "name": "acceptLendingRequest",
      "outputs": [],
      "stateMutability": "payable",
      "type": "function",
      "payable": true
    },
    {
      "inputs": [
        {
          "internalType": "uint256",
          "name": "offerId",
          "type": "uint256"
        }
      ],
      "name": "reActivateOffer",
      "outputs": [],
      "stateMutability": "nonpayable",
      "type": "function"
    },
    {
      "inputs": [],
      "name": "reActivateRequest",
      "outputs": [],
      "stateMutability": "payable",
      "type": "function",
      "payable": true
    },
    {
      "inputs": [
        {
          "internalType": "uint256",
          "name": "loanId",
          "type": "uint256"
        },
        {
          "internalType": "uint16",
          "name": "percentage",
          "type": "uint16"
        }
      ],
      "name": "repayLoan",
      "outputs": [],
      "stateMutability": "payable",
      "type": "function",
      "payable": true
    },
    {
      "inputs": [
        {
          "internalType": "uint256",
          "name": "loanId",
          "type": "uint256"
        }
      ],
      "name": "claimCollateral",
      "outputs": [],
      "stateMutability": "nonpayable",
      "type": "function"
    },
    {
      "inputs": [
        {
          "internalType": "uint256",
          "name": "loanId",
          "type": "uint256"
        }
      ],
      "name": "claimPrincipal",
      "outputs": [],
      "stateMutability": "nonpayable",
      "type": "function"
    },
    {
      "inputs": [
        {
          "internalType": "uint256",
          "name": "loanId",
          "type": "uint256"
        }
      ],
      "name": "repayLiquidatedLoan",
      "outputs": [],
      "stateMutability": "payable",
      "type": "function",
      "payable": true
    },
    {
      "inputs": [
        {
          "internalType": "address",
          "name": "ltv_",
          "type": "address"
        }
      ],
      "name": "setLTV",
      "outputs": [],
      "stateMutability": "nonpayable",
      "type": "function"
    },
    {
      "inputs": [
        {
          "internalType": "address",
          "name": "activity_",
          "type": "address"
        }
      ],
      "name": "setActivity",
      "outputs": [],
      "stateMutability": "nonpayable",
      "type": "function"
    },
    {
      "inputs": [
        {
          "internalType": "address",
          "name": "priceFeed_",
          "type": "address"
        }
      ],
      "name": "setPriceFeed",
      "outputs": [],
      "stateMutability": "nonpayable",
      "type": "function"
    },
    {
      "inputs": [
        {
          "internalType": "address",
          "name": "newOwner",
          "type": "address"
        }
      ],
      "name": "changeOwner",
      "outputs": [],
      "stateMutability": "nonpayable",
      "type": "function"
    },
    {
      "inputs": [
        {
          "internalType": "address",
          "name": "token",
          "type": "address"
        },
        {
          "internalType": "address payable",
          "name": "receiver",
          "type": "address"
        },
        {
          "internalType": "uint256",
          "name": "amount",
          "type": "uint256"
        }
      ],
      "name": "claim",
      "outputs": [],
      "stateMutability": "nonpayable",
      "type": "function"
    }
  ],
  "bytecode": "0x608034620000d557601f620039bf38819003918201601f19168301916001600160401b03831184841017620000da57808492608094604052833981010312620000d5576200004d81620000f0565b906200005c60208201620000f0565b6200007860606200007060408501620000f0565b9301620000f0565b90600160005560018060a01b03928380928160018060a01b03199716876005541617600555168560065416176006551683600754161760075516816008541617600855339060015416176001556040516138b99081620001068239f35b600080fd5b634e487b7160e01b600052604160045260246000fd5b51906001600160a01b0382168203620000d55756fe6080604052600436101561001257600080fd5b6000803560e01c806310e14e1914612e8d5780632672a87a146129415780632e4763371461291857806337787d51146129095780634add7c821461245e57806353188b14146120345780635c7f31aa14611bac57806361ba944314611b9c578063628118ee146117a9578063724e78da1461175e5780637cc5805a1461158e578063996cba681461146c578063a33928da14610f7c578063a6f9dae114610f33578063b85a8b2014610f17578063c1bc89ef14610ca7578063c49785b414610b92578063cc3266e814610b6f578063d130227b14610b5a578063e0b2695914610b26578063e0f7dffd14610af9578063e3f43fdb14610aae578063e826fbe7146102b25763f9af05791461012557600080fd5b3461020f57602036600319011261020f57600654604051632820036560e11b8152600480359082018190526102609290916001600160a01b039184908290602490829086165afa9384156102a7578594610278575b5050806102408401511633036102425782848260408296015116600080516020613864833981519152811460001461022a575080806101c081940151818115610221575b3390f115610212575b6006541690813b1561021d57829160248392604051948593849263f9af057960e01b845260048401525af18015610212576101ff5750f35b61020890612f37565b61020f5780f35b80fd5b6040513d84823e3d90fd5b5050fd5b506108fc6101be565b90506101c061023d92015190339061341c565b6101c7565b60405162461bcd60e51b815260206004820152600e60248201526d22a9292fa727aa2fa622a72222a960911b6044820152606490fd5b610298929450803d106102a0575b6102908183612f61565b8101906135b7565b91388061017a565b503d610286565b6040513d87823e3d90fd5b50606036600319011261020f576102c7612f04565b906102d0612eee565b916102da81613779565b6007546040516322bc934560e11b8152600480359082015291906001600160a01b03168383602481845afa928315610a1d578493610a8a575b50604051633970062960e01b815260048035908201526001600160a01b038616602482015290602090829060449082905afa908115610a1d576103729291610362918691610a5b575b5061356b565b61ffff606084015191169061383f565b60035460208381015160405163912d228f60e01b81526001600160a01b0391821660048201526024810185905292839160449183918991165af1908115610a1d578491610a28575b50600480546040516322a0fe3360e21b81523392810192909252602482019290925290602090829060449082906001600160a01b03165afa8015610a1d5784906109e2575b600354602085810151604051631c07d98160e21b81526001600160a01b03918216600482015289821660248201526044810187905294509091849116818881606481015b03925af19182156102a75785926109ae575b5060048054604051636882509b60e11b81529160209183919082906001600160a01b03165afa9081156109a357869161095b575b506104a2929160ff61049c92169061353d565b9061383f565b916000805160206138648339815191526001600160a01b0386168482820361094957505034841061090c575b60208201516001600160a01b031690839082036108fc57505083808380156108f2575b8280929181923390f1156107e5575b6005546101008201516001600160a01b039182169116813b156108ee57604051638340f54960e01b81526001600160a01b0391821660048201529087166024820152604481018590529085908290606490829084905af180156102a7579085916108da575b505060055461010082015160208301516001600160a01b03928316929081169116823b156108d657604051633dae446f60e21b81526001600160a01b03918216600482015291166024820152604481018490529085908290606490829084905af180156102a7579085916108be575b505060035460405163912d228f60e01b81526001600160a01b03878116600483015260248201869052909491602091869160449183918a91165af19384156102a757859461088a575b5060018060a01b0360065416956101a083015160028110156108765786976020928887936106938a60018060a01b03888b0151169260808b015161ffff60a08d015116908c61010060018060a01b0391015116936040519c8d9b8c9a8b9963298b04a560e01b8b52339760043560048d01613397565b03925af180156102a757610847575b506007546001600160a01b0316803b156108435784809160446040518094819363f094cb9560e01b835260043560048401528860248401525af19081156102a757859161082f575b505060035460209182015160405163912d228f60e01b81526001600160a01b0391821660048201526024810194909452839116818681604481015b03925af19081156107e55783916107f5575b506002546001600160a01b0316803b156107f0576040516311eba9df60e21b8152336004820152602481019290925283908290604490829084905af19081156107e55783916107ce575b50506002546001600160a01b0316803b1561021d5760405163094f618d60e11b8152336004820152602481019290925282908290818381604481015b03925af18015610212576101ff5750f35b6107d790612f37565b6107e2578138610781565b50fd5b6040513d85823e3d90fd5b505050fd5b9250506020823d602011610827575b8161081160209383612f61565b810103126108225782915138610737565b600080fd5b3d9150610804565b61083890612f37565b6107f05783386106ea565b8480fd5b6020809295503d831161086f575b61085f8183612f61565b81010312610822578392386106a2565b503d610855565b634e487b7160e01b87526021600452602487fd5b9093506020813d6020116108b6575b816108a660209383612f61565b810103126108225751923861061d565b3d9150610899565b6108c790612f37565b6108d25783386105d4565b8380fd5b8680fd5b6108e390612f37565b6108d2578338610565565b8580fd5b6108fc91506104f1565b61090791339061341c565b610500565b60405162461bcd60e51b815260206004820152601560248201527411549497d0d3d31310551154905317d05353d55395605a1b6044820152606490fd5b6109569130903390612f9b565b6104ce565b90506020813d60201161099b575b8161097660209383612f61565b810103126108ee576104a2929160ff61099161049c9361352f565b9250509192610489565b3d9150610969565b6040513d88823e3d90fd5b9091506020813d6020116109da575b816109ca60209383612f61565b8101031261082257519038610455565b3d91506109bd565b506020813d602011610a15575b816109fc60209383612f61565b810103126108d257610a1061044391613217565b6103ff565b3d91506109ef565b6040513d86823e3d90fd5b90506020813d602011610a53575b81610a4360209383612f61565b81010312610822575160206103ba565b3d9150610a36565b610a7d915060203d602011610a83575b610a758183612f61565b810190612fee565b3861035c565b503d610a6b565b610aa79193503d8086833e610a9f8183612f61565b81019061323a565b9138610313565b503461020f57602036600319011261020f57610ac8612ed8565b6001546001600160a01b039190610ae2908316331461373c565b166001600160601b0360a01b600254161760025580f35b503461020f57606036600319011261020f576020610b1e604435602435600435613812565b604051908152f35b503461020f57604036600319011261020f57602435906001600160a01b038216820361020f576020610b1e8360043561383f565b503461020f57602036600319011261020f5780f35b503461020f578060031936011261020f576020604051670de0b6b3a76400008152f35b503461020f57602036600319011261020f578060043560018060a01b0380600654166040518091632820036560e11b82528460048301528160246102609485935afa9182156102a7578592610c8a575b5050610bf6826102208301511633146136da565b83826060830151166000805160206138648339815191528114600014610c72575080806101e081940151818115610c69575b3390f115610212575b6006541690813b1561021d578291602483926040519485938492633125e16d60e21b845260048401525af18015610212576101ff5750f35b506108fc610c28565b90506101e0610c8592015190339061341c565b610c31565b610ca09250803d106102a0576102908183612f61565b3880610be2565b5060c036600319011261020f576001600160a01b036024358181169160043590838303610822576044359367ffffffffffffffff85116108ee57366023860112156108ee57846004013591610cfb83612f83565b610d086040519182612f61565b8381526020968782016024819660051b83010191368311610f1357602401905b828210610efb575050506064359461ffff9081871680970361082257610d4c612f26565b90835115610eb6578a6000805160206138648339815191528703610ea357905034985b8560055416803b15610e9f57604051638340f54960e01b81523360048201526001600160a01b03929092166024830152604482018b905282908290606490829084905af1801561021257610e87575b5093919289979896938360079793975416966040519a8b9963031137cd60e61b8b5260e48b019560048c015260248b015260843560448b015260648a015216608488015260e060a4880152518091526101048601929184905b828210610e665750505050908380923360c483015203925af180156107e557610e3e578280f35b813d8311610e5f575b610e518183612f61565b810103126108225738808280f35b503d610e47565b8351811685528a988a98508c96509485019490930192600190910190610e17565b610e9090612f37565b610e9b578938610dbe565b8980fd5b8280fd5b9098610eb18a30338a612f9b565b610d6f565b60405162461bcd60e51b8152600481018b9052601760248201527f4552525f4e4f5f434f4c4c41544552414c5f54595045530000000000000000006044820152606490fd5b81358581168103610822578152908901908901610d28565b8a80fd5b503461020f578060031936011261020f57602060405160648152f35b503461020f57602036600319011261020f57610f4d612ed8565b600154906001600160a01b0390610f67338385161461373c565b16906001600160601b0360a01b161760015580f35b50604036600319011261020f57610f91612f04565b90610f9b82613779565b6007546040516322bc934560e11b81526004803590820152908290829060249082906001600160a01b03165afa908115610212578291611452575b506101008101516001600160a01b031633146114175761100f61100461ffff6101808401519516809561383f565b93606083015161383f565b60208201516001600160a01b03168160008051602061386483398151915282036113e25790503410610e9f57828080808460018060a01b03610100880151168282156113d9575bf115610212575b6005546101008301516101408401516001600160a01b03928316929081169116823b156108ee57604051633c6340f360e21b81526001600160a01b03918216600482015233602482015291166044820152606481018690529084908290608490829084905af18015610a1d579084916113c5575b505060055460208301516001600160a01b039182169116813b1561084357604051633dae446f60e21b81523360048201526001600160a01b03919091166024820152604481018390529084908290606490829084905af18015610a1d576113b1575b5060035461014083015160405163912d228f60e01b81526001600160a01b039182166004820152602481018790529591602091879160449183918991165af1948515610a1d57849561137d575b5060018060a01b036006541683516101a085015160028110156108765796849260209288809a61120460018060a01b03878c0151169360018060a01b036101408d015116968c608081015161ffff60a0830151169161010060018060a01b0391015116928d6040519d8e9c8d9b8c9a63298b04a560e01b8c52339960048d01613397565b03925af180156102a75761134e575b506007546001600160a01b0316803b15610843576040516324b42bc160e01b8152600480359082015260248101849052604481019290925284908290606490829084905af1908115610a1d57849161133a575b505060035460208381015160405163912d228f60e01b81526001600160a01b03918216600482015260248101949094529091839160449183918891165af19081156107e5578391611305575b50600254610100909201516001600160a01b03928316921690823b156107f0576040516311eba9df60e21b81526001600160a01b03909216600483015260248201529082908290818381604481016107bd565b9250506020823d602011611332575b8161132160209383612f61565b8101031261082257829151386112b2565b3d9150611314565b61134390612f37565b61021d578238611266565b6020809295503d8311611376575b6113668183612f61565b8101031261082257839238611213565b503d61135c565b9094506020813d6020116113a9575b8161139960209383612f61565b8101031261082257519338611180565b3d915061138c565b6113bb8491612f37565b610e9f5738611133565b6113ce90612f37565b610e9f5782386110d1565b506108fc611056565b6113ef9130903390612f9b565b60208201516101008301516114129183916001600160a01b03908116911661341c565b61105d565b60405162461bcd60e51b815260206004820152601360248201527222a9292fa1a0a72a2fa127a92927abafa7aba760691b6044820152606490fd5b61146691503d8084833e610a9f8183612f61565b38610fd6565b503461020f57606036600319011261020f57611486612ed8565b6001600160a01b03602435818116908190036108d257604435916114af8160015416331461373c565b82156115575784938160085416803b156108ee576040516331b5f13d60e11b81526001600160a01b0383166004820152602481018690529086908290604490829084905af19081156109a3578691611543575b50501660008051602061386483398151915281036115365750828092819282f11561152a5780f35b604051903d90823e3d90fd5b611540935061341c565b80f35b61154c90612f37565b610843578438611502565b60405162461bcd60e51b815260206004820152600f60248201526e11549497d6915493d7d05353d55395608a1b6044820152606490fd5b5060a036600319011261020f576004356115a6612f04565b9060443561ffff9283821680920361082257846115c1612f15565b946115cb83613779565b6007546040516322bc934560e11b8152600481018790526001600160a01b039184908290602490829086165afa908115610a1d578491611744575b50602061161b8460608401519716809761383f565b910190828251168160008051602061386483398151915282146000146117325790503410610843575b82806005541692511690823b156108ee57604051638340f54960e01b81523360048201526001600160a01b0392909216602483015260448201529084908290606490829084905af18015610a1d57611713575b509060209560c494939260075416916040519889978896630b438b8960e41b885260048801526064356024880152604487015216606485015233608485015260a48401525af18015610212576116eb575080f35b602090813d811161170c575b6117018183612f61565b810103126108225780f35b503d6116f7565b926117218193929594612f37565b61172e5790919238611697565b5080fd5b61173f9130903390612f9b565b611644565b61175891503d8086833e610a9f8183612f61565b38611606565b503461020f57602036600319011261020f57611778612ed8565b6001546001600160a01b039190611792908316331461373c565b166001600160601b0360a01b600354161760035580f35b50604036600319011261020f57806004356117c2612f04565b6117cb81613779565b600654604051632820036560e11b8152600481018490526102609290916001600160a01b03919084908490602490829086165afa9283156109a35786948594611b7d575b5050611823826102208501511633146136da565b61183261014084015142613719565b9461186661185861184d61ffff60808801519516809561383f565b9360c087015161383f565b966101208601519084613812565b936118718386613719565b9184600854166040519063a001ecdd60e01b82528160048160209b8c945af1908115611b32578a91611b41575b506118ac6118b3918561383f565b8094613719565b90604086600854169301938685511690843b15611b3d5760405163ef6506db60e01b81526001600160a01b039290921660048301526024820152928a908490604490829084905af18015611b325788938b91611b15575b509060849187600654166040519b8c95869463094bb9f160e11b86526004860152602485015288604485015260648401525af1958615611b0a578796611aeb575b5086838251166000805160206138648339815191528114600014611ad55750508334106108d65786935b856119c1856003541661198c868887511695613719565b60405163912d228f60e01b8082526001600160a01b039096166004820152602481019190915297889283919082906044820190565b03925af1948515611aca578895611a92575b50600354915160405191825284166001600160a01b0316600482015260248101929092528490829060449082908a9087165af19384156109a3578694611a5f575b505060025416803b156108435784928360849260405196879586946311dd211f60e31b865233600487015260248601526044850152151560648401525af18015610212576101ff5750f35b819650809294503d8311611a8b575b611a788183612f61565b8101031261082257849351913880611a14565b503d611a6e565b9297509350908481813d8111611ac3575b611aad8183612f61565b81010312610822575187969093909190856119d3565b503d611aa3565b6040513d8a823e3d90fd5b85611ae69196929630903390612f9b565b611975565b611b03919650853d8711610a8357610a758183612f61565b943861194b565b6040513d89823e3d90fd5b611b2191929450612f37565b611b2e578691893861190a565b8880fd5b6040513d8c823e3d90fd5b8b80fd5b90508781813d8311611b76575b611b588183612f61565b81010312610e9b576118ac611b6f6118b392613217565b915061189e565b503d611b4e565b611b94929450803d106102a0576102908183612f61565b91388061180f565b50602036600319011261020f5780f35b50602036600319011261020f5760075460405163c58343ef60e01b8152600480359082015291906001600160a01b03166101a083602481845afa928315610212578293612001575b508160e08401516024604051809481936322bc934560e11b835260048301525afa908115610212578291611fe7575b506101008101516001600160a01b03163303611fae5761018081015190611c69611c57602086019361ffff8551169061383f565b9261ffff60608401519151169061383f565b60208201519092906001600160a01b0316836000805160206138648339815191528203611f9e5750508380848015611f94575b8280929181923390f1156107e5575b60055460c08601516101408401516001600160a01b03928316929081169116823b156108d657604051638340f54960e01b81526001600160a01b03918216600482015291166024820152604481018390529085908290606490829084905af180156102a757908591611f80575b505060055460c086015160208401516001600160a01b03928316929081169116823b156108d657604051633dae446f60e21b81526001600160a01b03918216600482015291166024820152604481018590529085908290606490829084905af180156102a757908591611f6c575b505060035461014083015160405163912d228f60e01b81526001600160a01b0391821660048201526024810184905294939291602091869160449183918a91165af19384156102a7578594611f38575b5060018060a01b03600654169060e0870151906101a0840151906002821015611f24579260209288809a93611e60899760018060a01b03888b0151169460018060a01b036101408c015116978d60608201519061ffff6040840151169260c060018060a01b0391015116946040519d8e9c8d9b8c9a63298b04a560e01b8c52339860048d01613397565b03925af180156102a757611ef5575b5060018060a01b03600754168151813b156108ee57859160448392604051948593849263f094cb9560e01b845260048401528860248401525af19081156102a757859161082f57505060035460209182015160405163912d228f60e01b81526001600160a01b039182166004820152602481019490945283911681868160448101610725565b6020809295503d8311611f1d575b611f0d8183612f61565b8101031261082257839238611e6f565b503d611f03565b634e487b7160e01b88526021600452602488fd5b9093506020813d602011611f64575b81611f5460209383612f61565b8101031261082257519238611dd6565b3d9150611f47565b611f7590612f37565b6108d2578338611d86565b611f8990612f37565b6108d2578338611d18565b6108fc9150611c9c565b611fa991339061341c565b611cab565b60405162461bcd60e51b815260206004820152601160248201527022a9292fa7a7262cafa127a92927aba2a960791b6044820152606490fd5b611ffb91503d8084833e610a9f8183612f61565b38611c23565b6120269193506101a03d6101a01161202d575b61201e8183612f61565b810190613455565b9138611bf4565b503d612014565b5060c036600319011261020f57612049612ed8565b81612052612eee565b9161205b612f15565b90612064612f26565b60035460405163912d228f60e01b81526001600160a01b03848116600483015260248035908301529492939291602090829060449082908a908a165af19081156109a3578691612426575b50600480546040516322a0fe3360e21b815233928101929092526024820192909252906020908290604490829089165afa9081156109a35786916123ec575b50600354604051631c07d98160e21b81526001600160a01b038581166004830152891660248083019190915235604482015290602090829060649082908b908b165af1908115611b0a5787916123b7575b50600460208782541660405192838092636882509b60e11b82525afa908115611aca578891612371575b5061217b9260ff61049c92169061353d565b92868516926000805160206138648339815191528403612360578434106108d6575b856005541691823b1561235c57604051638340f54960e01b81523360048201526001600160a01b038a166024820152604481018790529288908490606490829084905af1908115611aca5787938992612340575b50906101049291602095856007541691604051988997889663486c386960e11b885216600487015260248601528960448601526024356064860152606435608486015261ffff80921660a48601521660c48401523360e48401525af18015610a1d57612311575b5060035460405163912d228f60e01b81526001600160a01b03959095166004860152602485019190915291929160209083906044908290879086165af19182156107e55783926122da575b5060025416803b1561021d5760405163094f618d60e11b8152336004820152602481019290925282908290818381604481016107bd565b925090506020823d602011612309575b816122f760209383612f61565b810103126108225782915190386122a3565b3d91506122ea565b6020809294503d8311612339575b6123298183612f61565b8101031261082257839138612258565b503d61231f565b61234d9193959450612f37565b6108d6579186869293386121f1565b8780fd5b61236c85303387612f9b565b61219d565b90506020813d6020116123af575b8161238c60209383612f61565b8101031261235c5761217b9260ff6123a661049c9361352f565b92505092612169565b3d915061237f565b9650506020863d6020116123e4575b816123d360209383612f61565b81010312610822578795513861213f565b3d91506123c6565b90506020813d60201161241e575b8161240760209383612f61565b810103126108ee5761241890613217565b386120ee565b3d91506123fa565b9550506020853d602011612456575b8161244260209383612f61565b8101031261082257935186949060206120af565b3d9150612435565b503461020f57602036600319011261020f5760075460405163c58343ef60e01b815260048035908201526001600160a01b0390911691906101a081602481865afa9081156102125782916128e8575b508160e08201516024604051809681936322bc934560e11b835260048301525afa9283156102125782936128cc575b50610100838101519093906001600160a01b031633036128955761250d606082015161ffff6020850151169061383f565b60208201519091906001600160a01b03168260008051602061386483398151915282036128765760c0850151869250829182918291906001600160a01b031682821561286d575bf1156107e5575b60055460c084018051878601516101208701519296936001600160a01b03908116929181169116823b15611b2e57604051633c6340f360e21b81526001600160a01b03918216600482015233602482015291166044820152606481019290925286908290608490829084905af180156109a357908691612859575b505060055460208301516001600160a01b039182169116813b156108d657604051633dae446f60e21b81523360048201526001600160a01b03919091166024820152604481018590529086908290606490829084905af180156109a357908691612845575b505060018060a01b036006541660e0820151966101a08401516002811015611f245797859260209289809b6126ca60018060a01b03878b0151169360018060a01b03908a015116956101208a01518d8b61014081015161ffff60406060840151930151169260018060a01b03905116936040519d8e9c8d9b8c9a63298b04a560e01b8c52339960048d01613397565b03925af180156109a357612816575b5060018060a01b03600754169061012060e0820151910151823b156108d6576040516324b42bc160e01b815260048101929092526024820185905260448201529085908290606490829084905af19081156102a7578591612802575b505060035460209182015160405163912d228f60e01b81526001600160a01b0391821660048201526024810194909452839160449183918891165af19081156107e55783916127cd575b5060025491516001600160a01b03928316921690823b156107f0576040516311eba9df60e21b81526001600160a01b03909216600483015260248201529082908290818381604481016107bd565b9250506020823d6020116127fa575b816127e960209383612f61565b81010312610822578291513861277f565b3d91506127dc565b61280b90612f37565b6107f0578338612735565b6020809296503d831161283e575b61282e8183612f61565b81010312610822578493386126d9565b503d612824565b61284e90612f37565b61084357843861263b565b61286290612f37565b6108435784386125d6565b506108fc612554565b60c0850151612890926001600160a01b039091169061341c565b61255b565b60405162461bcd60e51b815260206004820152600f60248201526e22a9292fa7a7262cafa622a72222a960891b6044820152606490fd5b6128e19193503d8084833e610a9f8183612f61565b91386124dc565b61290391506101a03d6101a01161202d5761201e8183612f61565b386124ad565b508060031936011261020f5780f35b503461020f578060031936011261020f5760206040516000805160206138648339815191528152f35b5060c036600319011261020f57612956612f04565b9061295f612eee565b90612968612f15565b91612971612f26565b9361297b81613779565b6007546040516322bc934560e11b815260048035908201526001600160a01b03909116959084816024818a5afa9081156102a7578591612e73575b50604051633970062960e01b815260048035908201526001600160a01b038516602482015296602090889060449082905afa9687156102a757612a5b97612a03918791610a5b575061356b565b612a16606082015161ffff85169061383f565b60035460208084015160405163912d228f60e01b81526001600160a01b039182166004820152602481018590529a93949391928b9291169082908a9082906044820190565b03925af19788156109a3578698612e3e575b50600480546040516322a0fe3360e21b8152339281019290925260248201999099529697959695602090879060449082906001600160a01b03165afa958615611b0a578796612dfa575b50600354602091820151604051631c07d98160e21b81526001600160a01b03918216600482015281881660248201526044810194909452839116818981606481015b03925af19081156109a3578691612dc8575b5060048054604051636882509b60e11b81529160209183919082906001600160a01b03165afa908115611b0a578791612d82575b509061049c60ff612b5193168761353d565b906001600160a01b03841660008051602061386483398151915203612d68573482106108ee575b6005546001600160a01b031696873b156108d657604051638340f54960e01b81523360048201526001600160a01b0386166024820152604481018490529787908990606490829084905af18015611b0a57612d54575b60035460405163912d228f60e01b81526001600160a01b038781166004830152602482018690529899508998909791602091899160449183918d91165af1968715611aca578897612d13575b50600754604051633bb1374b60e01b815261ffff9687166004808301919091526001600160a01b039889166024830152604482019690965260648082018a90529288166084820152913560a483015291851660c48201529190931660e48201523361010482015290356101248201529160209183916101449183918891165af180156107e557612ce4575b506002546001600160a01b0316803b1561021d5760405163094f618d60e11b8152336004820152602481019290925282908290818381604481016107bd565b6020809293503d8311612d0c575b612cfc8183612f61565b8101031261082257819038612ca5565b503d612cf2565b9750955091926020873d602011612d4c575b81612d3260209383612f61565b81010312610822579551879690959093929061ffff612c1a565b3d9150612d25565b959096612d6090612f37565b948690612bce565b612d7d8230336001600160a01b038816612f9b565b612b78565b90506020813d602011612dc0575b81612d9d60209383612f61565b810103126108d6579061049c60ff612db7612b519461352f565b92935050612b3f565b3d9150612d90565b90506020813d602011612df2575b81612de360209383612f61565b810103126108ee575138612b0b565b3d9150612dd6565b9095506020813d602011612e36575b81612e1660209383612f61565b810103126108d657612af991612e2d602092613217565b96915091612ab7565b3d9150612e09565b97506020883d602011612e6b575b81612e5960209383612f61565b810103126108ee579651966020612a6d565b3d9150612e4c565b612e8791503d8087833e610a9f8183612f61565b386129b6565b503461020f57602036600319011261020f57612ea7612ed8565b6001546001600160a01b039190612ec1908316331461373c565b166001600160601b0360a01b600454161760045580f35b600435906001600160a01b038216820361082257565b604435906001600160a01b038216820361082257565b6024359061ffff8216820361082257565b6084359061ffff8216820361082257565b60a4359061ffff8216820361082257565b67ffffffffffffffff8111612f4b57604052565b634e487b7160e01b600052604160045260246000fd5b90601f8019910116810190811067ffffffffffffffff821117612f4b57604052565b67ffffffffffffffff8111612f4b5760051b60200190565b6040516323b872dd60e01b60208201526001600160a01b0392831660248201529290911660448301526064820192909252612fec91612fe782608481015b03601f198101845283612f61565b613006565b565b90816020910312610822575180151581036108225790565b6040805167ffffffffffffffff94936001600160a01b03909316929091820185811183821017612f4b576040526020928383527f5361666545524332303a206c6f772d6c6576656c2063616c6c206661696c6564848401526000808386829551910182855af1903d15613136573d968711613122576130a69495966040519061309888601f19601f8401160183612f61565b81528093873d92013e613143565b805190816130b357505050565b82806130c3938301019101612fee565b156130cb5750565b6084906040519062461bcd60e51b82526004820152602a60248201527f5361666545524332303a204552433230206f7065726174696f6e20646964206e6044820152691bdd081cdd58d8d9595960b21b6064820152fd5b634e487b7160e01b83526041600452602483fd5b91506130a6939495506060915b919290156131a55750815115613157575090565b3b156131605790565b60405162461bcd60e51b815260206004820152601d60248201527f416464726573733a2063616c6c20746f206e6f6e2d636f6e74726163740000006044820152606490fd5b8251909150156131b85750805190602001fd5b6040519062461bcd60e51b82528160208060048301528251908160248401526000935b8285106131fe575050604492506000838284010152601f80199101168101030190fd5b84810182015186860160440152938101938593506131db565b51906001600160a01b038216820361082257565b519061ffff8216820361082257565b602091828282031261082257815167ffffffffffffffff928382116108225701916101c09384848403126108225760405194850185811083821117612f4b576040528351855261328b818501613217565b818601526040840151604086015260608401516060860152608084015160808601526132b960a0850161322b565b60a086015260c084015160c086015260e084015160e08601526101006132e0818601613217565b9086015261012091828501519081116108225784019280601f8501121561082257835161330c81612f83565b9461331a6040519687612f61565b818652838087019260051b820101928311610822578301905b828210613380575050505083015261014061334f818301613217565b90830152610160808201519083015261018080820151908301526101a0809101519060028210156108225782015290565b83809161338c84613217565b815201910190613333565b99949892979193959b9a96909b6101608b019c8b52600285101561340657610140998b9960409861ffff9760208d015260018060a01b039b8c9a8b8094169101521660608d015260808c015260a08b015260c08a015260e0890152166101008701521661012085015216910152565b634e487b7160e01b600052602160045260246000fd5b60405163a9059cbb60e01b60208201526001600160a01b0390921660248301526044820192909252612fec91612fe78260648101612fd9565b80916101a092839103126108225760405191820182811067ffffffffffffffff821117612f4b576040528051825261348f6020820161322b565b60208301526134a06040820161322b565b6040830152606081015160608301526080810151608083015260a081015160a08301526134cf60c08201613217565b60c083015260e081015160e08301526101006134ec818301613217565b9083015261012080820151908301526101408082015190830152610160613514818301613217565b90830152610180809101519060028210156108225782015290565b519060ff8216820361082257565b6001600160a01b039182169190821561355557160490565b634e487b7160e01b600052601260045260246000fd5b1561357257565b60405162461bcd60e51b815260206004820152601c60248201527f4552525f434f4c4c41544552414c5f4e4f545f535550504f52544544000000006044820152606490fd5b809161026092839103126108225760405191820182811067ffffffffffffffff821117612f4b57604052805182526020810151600381101561082257602083015261360460408201613217565b604083015261361560608201613217565b60608301526080810151608083015260a081015160a083015260c081015160c083015260e081015160e0830152610100808201519083015261012080820151908301526101408082015190830152610160808201519083015261018061367c81830161322b565b908301526101a061368e81830161352f565b908301526101c080820151908301526101e0808201519083015261020080820151908301526102206136c1818301613217565b908301526136d3610240809201613217565b9082015290565b156136e157565b60405162461bcd60e51b815260206004820152601060248201526f22a9292fa727aa2fa127a92927aba2a960811b6044820152606490fd5b9190820391821161372657565b634e487b7160e01b600052601160045260246000fd5b1561374357565b60405162461bcd60e51b815260206004820152600e60248201526d22a9292fa7a7262cafa7aba722a960911b6044820152606490fd5b61ffff809116606481116137c857601990061661379257565b60405162461bcd60e51b815260206004820152600e60248201526d4552525f50455243454e5441474560901b6044820152606490fd5b60405162461bcd60e51b815260206004820152600f60248201526e4f5645525f50455243454e5441474560881b6044820152606490fd5b8181029291811591840414171561372657565b9161383160649261382c670de0b6b3a764000093866137ff565b6137ff565b040481018091116137265790565b906001600160a01b0316801561385f5761385b906064926137ff565b0490565b509056fe000000000000000000000000eeeeeeeeeeeeeeeeeeeeeeeeeeeeeeeeeeeeeeeea26469706673582212201eca6692d5481a11f2e591b20e0eacdd23cc8df53805bc33eef25e4a3bacb41564736f6c63430008110033",
  "immutableReferences": {},
  "source": "// SPDX-License-Identifier: GPL-3.0\r\npragma solidity >=0.7.0 <0.9.0;\r\n\r\nimport \"./Activity.sol\";\r\n\r\nimport \"./libraries/Errors.sol\";\r\nimport \"./libraries/PoolLibrary.sol\";\r\n\r\nimport \"./math/SimpleInterest.sol\";\r\n\r\nimport \"./interfaces/IPriceFeed.sol\";\r\nimport \"./interfaces/ILoanToValueRatio.sol\";\r\nimport \"./interfaces/IFeeManager.sol\";\r\n\r\nimport \"./managers/LoanManager.sol\";\r\nimport \"./managers/OfferManager.sol\";\r\nimport \"./managers/PoolManager.sol\";\r\n\r\nimport \"@openzeppelin/contracts/utils/Context.sol\";\r\nimport \"@openzeppelin/contracts/token/ERC20/ERC20.sol\";\r\nimport \"@openzeppelin/contracts/token/ERC20/utils/SafeERC20.sol\";\r\nimport \"@openzeppelin/contracts/security/ReentrancyGuard.sol\";\r\n\r\n/*\r\n    LendingPool is the core contract of the DARSH protocol.\r\n    It interacts with managers, price feed, loan-to-Value ratio, math libraries,\r\n    trust score, and others to carry out the peer to peer functionality.\r\n*/\r\n\r\ncontract LendingPool is Context, ReentrancyGuard, SimpleInterest {\r\n    using SafeERC20 for ERC20;\r\n\r\n    address deployer;\r\n\r\n    Activity private _activity;\r\n    IPriceFeed private _priceFeed;\r\n    ILoanToValueRatio private _ltv;\r\n\r\n    // managers\r\n    PoolManager private _poolManager;\r\n    LoanManager private _loanManager;\r\n    OfferManager private _offerManager;\r\n    IFeeManager private _feeManager;\r\n\r\n    address public constant nativeAddress =\r\n        0xEeeeeEeeeEeEeeEeEeEeeEEEeeeeEeeeeeeeEEeE;\r\n\r\n    constructor(\r\n        address poolManager_,\r\n        address loanManager_,\r\n        address offerManager_,\r\n        address feeManager_\r\n    ) ReentrancyGuard() {\r\n        _poolManager = PoolManager(poolManager_);\r\n        _loanManager = LoanManager(loanManager_);\r\n        _offerManager = OfferManager(offerManager_);\r\n        _feeManager = IFeeManager(feeManager_);\r\n\r\n        deployer = _msgSender();\r\n    }\r\n\r\n    // @lenders\r\n    function createLendingOffer(\r\n        uint256 principalAmount_, // only for ERC20 assets\r\n        address principalToken,\r\n        address[] memory collateralTokens,\r\n        uint16 daysToMaturity,\r\n        uint256 interest,\r\n        uint16 daysToExpire\r\n    ) public payable {\r\n        uint256 principalAmount;\r\n\r\n        require(collateralTokens.length > 0, \"ERR_NO_COLLATERAL_TYPES\");\r\n\r\n        /* extract tokens from lender */\r\n        if (principalToken == nativeAddress) {\r\n            principalAmount = msg.value;\r\n        } else {\r\n            principalAmount = principalAmount_;\r\n            ERC20(principalToken).safeTransferFrom(\r\n                _msgSender(),\r\n                address(this),\r\n                principalAmount\r\n            );\r\n        }\r\n\r\n        /* delegate principal to lender */\r\n        _poolManager.deposit(_msgSender(), principalToken, principalAmount);\r\n\r\n        /* create the lending offer */\r\n        _offerManager.createLendingOffer(\r\n            principalToken,\r\n            principalAmount,\r\n            interest,\r\n            daysToMaturity,\r\n            daysToExpire,\r\n            collateralTokens,\r\n            _msgSender()\r\n        );\r\n    }\r\n\r\n    // @lenders\r\n    function createLendingRequest(\r\n        uint256 offerId,\r\n        uint16 percentage,\r\n        uint16 daysToMaturity,\r\n        uint256 interest,\r\n        uint16 hoursToExpire\r\n    ) public payable {\r\n        _checkPercentage(percentage);\r\n\r\n        OfferLibrary.Offer memory offer = _offerManager.getOffer(offerId);\r\n\r\n        uint256 principalAmount = percentageOf(\r\n            offer.initialPrincipal,\r\n            percentage\r\n        );\r\n\r\n        /* extract tokens from lender */\r\n        if (offer.principalToken == nativeAddress) {\r\n            require(msg.value >= principalAmount);\r\n        } else {\r\n            ERC20(offer.principalToken).safeTransferFrom(\r\n                _msgSender(),\r\n                address(this),\r\n                principalAmount\r\n            );\r\n        }\r\n\r\n        /* delegate principal to lender */\r\n        _poolManager.deposit(\r\n            _msgSender(),\r\n            offer.principalToken,\r\n            principalAmount\r\n        );\r\n\r\n        /* create the lending request */\r\n        _offerManager.createLendingRequest(\r\n            percentage,\r\n            interest,\r\n            daysToMaturity,\r\n            hoursToExpire,\r\n            _msgSender(),\r\n            offerId\r\n        );\r\n    }\r\n\r\n    // @lenders\r\n    function acceptBorrowingOffer(uint256 offerId, uint16 percentage)\r\n        public\r\n        payable\r\n    {\r\n        _checkPercentage(percentage);\r\n\r\n        OfferLibrary.Offer memory offer = _offerManager.getOffer(offerId);\r\n\r\n        require(_msgSender() != offer.creator, \"ERR_CANT_BORROW_OWN\");\r\n\r\n        uint256 collateralAmount = percentageOf(\r\n            offer.initialCollateral,\r\n            percentage\r\n        );\r\n\r\n        uint256 principalAmount = percentageOf(\r\n            offer.initialPrincipal,\r\n            percentage\r\n        );\r\n\r\n        /* extract principal from lender/caller and transfer to borrower */\r\n        if (offer.principalToken == nativeAddress) {\r\n            require(msg.value >= principalAmount);\r\n            payable(offer.creator).transfer(principalAmount);\r\n        } else {\r\n            ERC20(offer.principalToken).safeTransferFrom(\r\n                _msgSender(),\r\n                address(this),\r\n                principalAmount\r\n            );\r\n            ERC20(offer.principalToken).safeTransfer(\r\n                offer.creator,\r\n                principalAmount\r\n            );\r\n        }\r\n\r\n        /* delegate the loan collateral to lender */\r\n        _poolManager.transfer(\r\n            offer.creator,\r\n            _msgSender(),\r\n            offer.collateralToken,\r\n            collateralAmount\r\n        );\r\n        /* undelegate the principal from lender */\r\n        _poolManager.burn(_msgSender(), offer.principalToken, principalAmount);\r\n\r\n        uint256 collateralPriceInUSD = _priceFeed.amountInUSD(\r\n            offer.collateralToken,\r\n            collateralAmount\r\n        );\r\n\r\n        /* register the loan from the loan manager */\r\n        _loanManager.createLoan(\r\n            offer.offerId,\r\n            offer.offerType,\r\n            offer.principalToken,\r\n            offer.collateralToken,\r\n            principalAmount,\r\n            collateralAmount,\r\n            collateralPriceInUSD,\r\n            offer.interest,\r\n            offer.daysToMaturity,\r\n            offer.creator,\r\n            _msgSender()\r\n        );\r\n\r\n        // will revert the transaction if fail\r\n        _offerManager._afterOfferBorrowingLoan(\r\n            offerId,\r\n            principalAmount,\r\n            collateralAmount\r\n        );\r\n\r\n        // update activity\r\n        uint256 borrowedAmountInUSD = _priceFeed.amountInUSD(\r\n            offer.principalToken,\r\n            principalAmount\r\n        );\r\n        _activity._borrowLoan(offer.creator, borrowedAmountInUSD);\r\n    }\r\n\r\n    // @lenders\r\n    function acceptBorrowingRequest(uint256 requestId) public {\r\n        RequestLibrary.Request memory request = _offerManager.getRequest(\r\n            requestId\r\n        );\r\n\r\n        OfferLibrary.Offer memory offer = _offerManager.getOffer(\r\n            request.offerId\r\n        );\r\n\r\n        require(offer.creator == _msgSender(), \"ERR_ONLY_LENDER\");\r\n\r\n        uint256 principalAmount = percentageOf(\r\n            offer.initialPrincipal,\r\n            request.percentage\r\n        );\r\n\r\n        /* transfer principal to borrower */\r\n        if (offer.principalToken == nativeAddress) {\r\n            payable(request.creator).transfer(principalAmount);\r\n        } else {\r\n            ERC20(offer.principalToken).safeTransfer(\r\n                request.creator,\r\n                principalAmount\r\n            );\r\n        }\r\n\r\n        /* delegate the loan collateral to lender */\r\n        _poolManager.transfer(\r\n            request.creator,\r\n            _msgSender(),\r\n            request.collateralToken,\r\n            request.collateralAmount\r\n        );\r\n        /* undelegate the principal from lender */\r\n        _poolManager.burn(_msgSender(), offer.principalToken, principalAmount);\r\n\r\n        /* register the loan from the loan manager */\r\n        _loanManager.createLoan(\r\n            request.offerId,\r\n            offer.offerType,\r\n            offer.principalToken,\r\n            request.collateralToken,\r\n            principalAmount,\r\n            request.collateralAmount,\r\n            request.collateralPriceInUSD,\r\n            request.interest,\r\n            request.daysToMaturity,\r\n            request.creator,\r\n            _msgSender()\r\n        );\r\n\r\n        // will revert the transaction if fail\r\n        _offerManager._afterOfferBorrowingLoan(\r\n            request.offerId,\r\n            principalAmount,\r\n            request.collateralAmount\r\n        );\r\n\r\n        // update activity\r\n        uint256 amountBorrowedInUSD = _priceFeed.amountInUSD(\r\n            offer.principalToken,\r\n            principalAmount\r\n        );\r\n        _activity._borrowLoan(request.creator, amountBorrowedInUSD);\r\n    }\r\n\r\n    // @borrower\r\n    function createBorrowingOffer(\r\n        address principalToken,\r\n        uint256 principalAmount,\r\n        address collateralToken,\r\n        uint256 interest,\r\n        uint16 daysToMaturity,\r\n        uint16 hoursToExpire\r\n    ) public payable {\r\n        uint256 principalAmountInUSD = _priceFeed.amountInUSD(\r\n            principalToken,\r\n            principalAmount\r\n        );\r\n\r\n        uint160 ltv = _ltv.getRelativeLTV(_msgSender(), principalAmountInUSD);\r\n\r\n        uint256 collateralNormalAmount = _priceFeed.exchangeRate(\r\n            principalToken,\r\n            collateralToken,\r\n            principalAmount\r\n        );\r\n\r\n        uint256 collateralAmount = percentageOf(\r\n            collateralNormalAmount,\r\n            ltv / _ltv.getBase()\r\n        );\r\n\r\n        /* extract collateral from borrower */\r\n        if (collateralToken == nativeAddress) {\r\n            require(msg.value >= collateralAmount);\r\n        } else {\r\n            ERC20(collateralToken).safeTransferFrom(\r\n                _msgSender(),\r\n                address(this),\r\n                collateralAmount\r\n            );\r\n        }\r\n\r\n        /* delegate the collateral to borrower */\r\n        _poolManager.deposit(_msgSender(), collateralToken, collateralAmount);\r\n\r\n        /* create the offer */\r\n        _offerManager.createBorrowingOffer(\r\n            principalToken,\r\n            collateralToken,\r\n            collateralAmount,\r\n            principalAmount,\r\n            interest,\r\n            daysToMaturity,\r\n            hoursToExpire,\r\n            _msgSender()\r\n        );\r\n\r\n        // update activity\r\n        uint256 amountInUSD = _priceFeed.amountInUSD(\r\n            collateralToken,\r\n            collateralAmount\r\n        );\r\n        _activity._dropCollateral(_msgSender(), amountInUSD);\r\n    }\r\n\r\n    // @borrower\r\n    function createBorrowingRequest(\r\n        uint256 offerId,\r\n        uint16 percentage,\r\n        address collateralToken,\r\n        uint256 interest,\r\n        uint16 daysToMaturity,\r\n        uint16 hoursToExpire\r\n    ) public payable {\r\n        _checkPercentage(percentage);\r\n\r\n        OfferLibrary.Offer memory offer = _offerManager.getOffer(offerId);\r\n\r\n        require(\r\n            _offerManager.isCollateralSupported(offerId, collateralToken),\r\n            \"ERR_COLLATERAL_NOT_SUPPORTED\"\r\n        );\r\n\r\n        uint256 principalAmount = percentageOf(\r\n            offer.initialPrincipal,\r\n            percentage\r\n        );\r\n\r\n        uint256 principalPriceInUSD = _priceFeed.amountInUSD(\r\n            offer.principalToken,\r\n            principalAmount\r\n        );\r\n\r\n        uint160 ltv = _ltv.getRelativeLTV(_msgSender(), principalPriceInUSD);\r\n\r\n        uint256 collateralNormalAmount = _priceFeed.exchangeRate(\r\n            offer.principalToken,\r\n            collateralToken,\r\n            principalAmount\r\n        );\r\n\r\n        uint256 collateralAmount = percentageOf(\r\n            collateralNormalAmount,\r\n            ltv / _ltv.getBase()\r\n        );\r\n\r\n        /* extract collateral from borrower */\r\n        if (collateralToken == nativeAddress) {\r\n            require(collateralAmount >= msg.value);\r\n        } else {\r\n            ERC20(collateralToken).safeTransferFrom(\r\n                _msgSender(),\r\n                address(this),\r\n                collateralAmount\r\n            );\r\n        }\r\n\r\n        /* delegate the collateral to borrower */\r\n        _poolManager.deposit(_msgSender(), collateralToken, collateralAmount);\r\n\r\n        uint256 collateralPriceInUSD = _priceFeed.amountInUSD(\r\n            collateralToken,\r\n            collateralAmount\r\n        );\r\n\r\n        /* create the request */\r\n        _offerManager.createBorrowingRequest(\r\n            percentage,\r\n            collateralToken,\r\n            collateralAmount,\r\n            collateralPriceInUSD,\r\n            ltv,\r\n            interest,\r\n            daysToMaturity,\r\n            hoursToExpire,\r\n            _msgSender(),\r\n            offerId\r\n        );\r\n\r\n        // update activity\r\n        _activity._dropCollateral(_msgSender(), collateralPriceInUSD);\r\n    }\r\n\r\n    // @borrower\r\n    function acceptLendingOffer(\r\n        uint256 offerId,\r\n        uint16 percentage,\r\n        address collateralToken\r\n    ) public payable {\r\n        _checkPercentage(percentage);\r\n\r\n        OfferLibrary.Offer memory offer = _offerManager.getOffer(offerId);\r\n\r\n        require(\r\n            _offerManager.isCollateralSupported(offerId, collateralToken),\r\n            \"ERR_COLLATERAL_NOT_SUPPORTED\"\r\n        );\r\n\r\n        uint256 principalAmount = percentageOf(\r\n            offer.initialPrincipal,\r\n            percentage\r\n        );\r\n\r\n        uint256 principalPriceInUSD = _priceFeed.amountInUSD(\r\n            offer.principalToken,\r\n            principalAmount\r\n        );\r\n\r\n        uint160 ltv = _ltv.getRelativeLTV(_msgSender(), principalPriceInUSD);\r\n\r\n        /* calculate the collateral amount */\r\n        uint256 collateralNormalAmount = _priceFeed.exchangeRate(\r\n            offer.principalToken,\r\n            collateralToken,\r\n            principalAmount\r\n        );\r\n\r\n        uint256 collateralAmount = percentageOf(\r\n            collateralNormalAmount,\r\n            ltv / _ltv.getBase()\r\n        );\r\n\r\n        /* extract collateral tokens from borrower */\r\n        if (collateralToken == nativeAddress) {\r\n            require(collateralAmount >= msg.value, \"ERR_COLLATERAL_AMOUNT\");\r\n        } else {\r\n            ERC20(collateralToken).safeTransferFrom(\r\n                _msgSender(),\r\n                address(this),\r\n                collateralAmount\r\n            );\r\n        }\r\n\r\n        /* transfer the principal to borrower */\r\n        if (offer.principalToken == nativeAddress) {\r\n            payable(_msgSender()).transfer(principalAmount);\r\n        } else {\r\n            ERC20(offer.principalToken).safeTransfer(\r\n                _msgSender(),\r\n                principalAmount\r\n            );\r\n        }\r\n\r\n        /* delegate the loan collateral to lender */\r\n        _poolManager.deposit(offer.creator, collateralToken, collateralAmount);\r\n        /* undelegate the loan principal from lender */\r\n        _poolManager.burn(offer.creator, offer.principalToken, principalAmount);\r\n\r\n        uint256 collateralPriceInUSD = _priceFeed.amountInUSD(\r\n            collateralToken,\r\n            collateralAmount\r\n        );\r\n\r\n        /* register the loan */\r\n        _loanManager.createLoan(\r\n            offerId,\r\n            offer.offerType,\r\n            offer.principalToken,\r\n            collateralToken,\r\n            principalAmount,\r\n            collateralAmount,\r\n            collateralPriceInUSD,\r\n            offer.interest,\r\n            offer.daysToMaturity,\r\n            _msgSender(),\r\n            offer.creator\r\n        );\r\n\r\n        // will revert if transaction fail\r\n        _offerManager._afterOfferLendingLoan(offerId, principalAmount);\r\n\r\n        // update activity\r\n        uint256 amountBorrowedInUSD = _priceFeed.amountInUSD(\r\n            offer.principalToken,\r\n            principalAmount\r\n        );\r\n        _activity._borrowLoan(_msgSender(), amountBorrowedInUSD);\r\n        _activity._dropCollateral(_msgSender(), collateralPriceInUSD);\r\n    }\r\n\r\n    // @borrower\r\n    function acceptLendingRequest(uint256 requestId) public payable {\r\n        RequestLibrary.Request memory request = _offerManager.getRequest(\r\n            requestId\r\n        );\r\n\r\n        OfferLibrary.Offer memory offer = _offerManager.getOffer(\r\n            request.offerId\r\n        );\r\n\r\n        require(offer.creator == _msgSender(), \"ERR_ONLY_BORROWER\");\r\n\r\n        uint256 collateralAmount = percentageOf(\r\n            offer.initialCollateral,\r\n            request.percentage\r\n        );\r\n\r\n        uint256 principalAmount = percentageOf(\r\n            offer.initialPrincipal,\r\n            request.percentage\r\n        );\r\n\r\n        /* transfer principal to borrower */\r\n        if (offer.principalToken == nativeAddress) {\r\n            payable(_msgSender()).transfer(principalAmount);\r\n        } else {\r\n            ERC20(offer.principalToken).safeTransfer(\r\n                _msgSender(),\r\n                principalAmount\r\n            );\r\n        }\r\n\r\n        /* delegate the loan collateral to lender */\r\n        _poolManager.deposit(\r\n            request.creator,\r\n            offer.collateralToken,\r\n            collateralAmount\r\n        );\r\n        /* undelegate the loan principal from lender */\r\n        _poolManager.burn(\r\n            request.creator,\r\n            offer.principalToken,\r\n            principalAmount\r\n        );\r\n\r\n        uint256 collateralPriceInUSD = _priceFeed.amountInUSD(\r\n            offer.collateralToken,\r\n            collateralAmount\r\n        );\r\n\r\n        /* register the loan from the loan manager */\r\n        _loanManager.createLoan(\r\n            request.offerId,\r\n            offer.offerType,\r\n            offer.principalToken,\r\n            offer.collateralToken,\r\n            principalAmount,\r\n            collateralAmount,\r\n            collateralPriceInUSD,\r\n            request.interest,\r\n            request.daysToMaturity,\r\n            _msgSender(),\r\n            request.creator\r\n        );\r\n\r\n        // will revert the transaction if fail\r\n        _offerManager._afterOfferLendingLoan(offer.offerId, principalAmount);\r\n\r\n        // update activityj\r\n        uint256 amountBorrowedInUSD = _priceFeed.amountInUSD(\r\n            offer.principalToken,\r\n            principalAmount\r\n        );\r\n        _activity._borrowLoan(_msgSender(), amountBorrowedInUSD);\r\n        _activity._dropCollateral(_msgSender(), collateralPriceInUSD);\r\n    }\r\n\r\n    // @lender\r\n    function reActivateOffer(uint256 offerId) public {\r\n        // _offerManager.reActivate(offerId, _msgSender());\r\n    }\r\n\r\n    // @borrower\r\n    function reActivateRequest() public payable {}\r\n\r\n    // @borrower\r\n    function repayLoan(uint256 loanId, uint16 percentage) public payable {\r\n        _checkPercentage(percentage);\r\n\r\n        LoanLibrary.Loan memory loan = _loanManager.getLoan(loanId);\r\n\r\n        // verify the borrower is the repayer\r\n        require(loan.borrower == _msgSender(), \"ERR_NOT_BORROWER\");\r\n\r\n        // calculate the duration of the loan\r\n        uint time = block.timestamp;\r\n        uint ellapsedSecs = (time - loan.startDate);\r\n\r\n        uint256 principalAmount = percentageOf(\r\n            loan.initialPrincipal,\r\n            percentage\r\n        );\r\n\r\n        uint256 collateralAmount = percentageOf(\r\n            loan.initialCollateral,\r\n            percentage\r\n        );\r\n\r\n        // calculate the pay back amount\r\n        uint256 repaymentPrincipalAmount = getFullInterestAmount(\r\n            principalAmount,\r\n            ellapsedSecs,\r\n            loan.interest\r\n        );\r\n\r\n        uint256 interestPaid = (repaymentPrincipalAmount - principalAmount);\r\n        uint256 fee = percentageOf(interestPaid, _feeManager.feePercentage());\r\n        uint256 unClaimedInterest = (interestPaid - fee);\r\n\r\n        _feeManager.credit(loan.principalToken, fee);\r\n\r\n        // will revert the transaction if fail\r\n        bool completed = _loanManager.repayLoan(\r\n            loanId,\r\n            unClaimedInterest,\r\n            principalAmount,\r\n            collateralAmount\r\n        );\r\n\r\n        /* extract pay back amount */\r\n        if (loan.principalToken == nativeAddress) {\r\n            require(msg.value >= repaymentPrincipalAmount);\r\n        } else {\r\n            ERC20(loan.principalToken).safeTransferFrom(\r\n                _msgSender(),\r\n                address(this),\r\n                repaymentPrincipalAmount\r\n            );\r\n        }\r\n\r\n        // update activity\r\n        uint256 interestPaidInUSD = _priceFeed.amountInUSD(\r\n            loan.principalToken,\r\n            (repaymentPrincipalAmount - principalAmount)\r\n        );\r\n\r\n        uint256 amountPaidInUSD = _priceFeed.amountInUSD(\r\n            loan.principalToken,\r\n            principalAmount\r\n        );\r\n\r\n        _activity._repayLoan(\r\n            _msgSender(),\r\n            amountPaidInUSD,\r\n            interestPaidInUSD,\r\n            completed\r\n        );\r\n    }\r\n\r\n    function claimCollateral(uint256 loanId) public {\r\n        LoanLibrary.Loan memory loan = _loanManager.getLoan(loanId);\r\n\r\n        require(loan.borrower == _msgSender(), \"ERR_NOT_BORROWER\");\r\n\r\n        if (loan.collateralToken == nativeAddress) {\r\n            payable(_msgSender()).transfer(loan.unClaimedCollateral);\r\n        } else {\r\n            ERC20(loan.collateralToken).safeTransfer(\r\n                _msgSender(),\r\n                loan.unClaimedCollateral\r\n            );\r\n        }\r\n\r\n        _loanManager.claimCollateral(loanId);\r\n    }\r\n\r\n    function claimPrincipal(uint256 loanId) public {\r\n        LoanLibrary.Loan memory loan = _loanManager.getLoan(loanId);\r\n\r\n        require(loan.lender == _msgSender(), \"ERR_NOT_LENDER\");\r\n\r\n        if (loan.principalToken == nativeAddress) {\r\n            payable(_msgSender()).transfer(loan.unClaimedPrincipal);\r\n        } else {\r\n            ERC20(loan.principalToken).safeTransfer(\r\n                _msgSender(),\r\n                loan.unClaimedPrincipal\r\n            );\r\n        }\r\n\r\n        _loanManager.claimPrincipal(loanId);\r\n    }\r\n\r\n    function repayLiquidatedLoan(uint256 loanId) public payable {}\r\n\r\n    // function liquidateLoan(uint256 loanId) public onlyOwner {\r\n    //     LoanLibrary.Loan memory loan = _loanManager.getLoan(loanId);\r\n    //     _loanManager.liquidateLoan(loanId);\r\n    // }\r\n\r\n    function setLTV(address ltv_) public onlyOwner {\r\n        _ltv = ILoanToValueRatio(ltv_);\r\n    }\r\n\r\n    function setActivity(address activity_) public onlyOwner {\r\n        _activity = Activity(activity_);\r\n    }\r\n\r\n    function setPriceFeed(address priceFeed_) public onlyOwner {\r\n        _priceFeed = IPriceFeed(priceFeed_);\r\n    }\r\n\r\n    function changeOwner(address newOwner) public onlyOwner {\r\n        deployer = newOwner;\r\n    }\r\n\r\n    /// @dev to claim revenue\r\n    function claim(\r\n        address token,\r\n        address payable receiver,\r\n        uint256 amount\r\n    ) public onlyOwner {\r\n        require(amount > 0, \"ERR_ZERO_AMOUNT\");\r\n        _feeManager.debit(token, amount);\r\n        if (token == nativeAddress) {\r\n            receiver.transfer(amount);\r\n        } else {\r\n            ERC20(token).safeTransfer(receiver, amount);\r\n        }\r\n    }\r\n\r\n    function _checkPercentage(uint16 percentage) private pure {\r\n        // percentage must be 25, 50, 75 or 100\r\n        require(percentage <= 100, \"OVER_PERCENTAGE\");\r\n        require(percentage % 25 == 0, \"ERR_PERCENTAGE\");\r\n    }\r\n\r\n    modifier onlyOwner() {\r\n        require(_msgSender() == deployer, \"ERR_ONLY_OWNER\");\r\n        _;\r\n    }\r\n}\r\n",
  "sourcePath": "C:\\Users\\DELL\\Documents\\darsh\\smart-contracts\\contracts\\LendingPool.sol",
  "compiler": {
    "name": "solc",
    "version": "0.8.17+commit.8df45f5f.Emscripten.clang"
  },
  "schemaVersion": "3.4.11",
  "updatedAt": "2023-02-17T16:29:08.526Z",
  "networkType": "ethereum",
  "devdoc": {
    "kind": "dev",
    "methods": {
      "claim(address,address,uint256)": {
        "details": "to claim revenue"
      }
    },
    "version": 1
  },
  "userdoc": {
    "kind": "user",
    "methods": {},
    "version": 1
  }
}